:020000040800F2
:1000000000000220A15E010875BE000877BE00084E
:100010007DBE00087FBE000881BE00080000000011
:10002000000000000000000000000000118B00082C
:1000300083BE000800000000B18B0008C5870008DF
:10004000F15E0108F15E0108F15E0108F15E010850
:1000500085BE0008F15E0108F15E0108F15E01084D
:10006000F15E01088DBE000897BE0008F15E010830
:10007000A1BE0008B1BE0008C1BE0008D1BE000884
:10008000F15E0108F15E0108F15E0108F15E010810
:10009000E1BE0008F1BE0008F15E010801BF0008E2
:1000A000F15E0108F15E0108F15E0108F15E0108F0
:1000B000F15E0108F15E0108F15E0108F15E0108E0
:1000C000F15E01080DBF00081DBF00082DBF00082C
:1000D0003DBF00084DBF0008F15E01085DBF00088C
:1000E000F15E0108F15E0108F15E0108F15E0108B0
:1000F000F15E01086DBF0008F15E010885BF0008D0
:10010000F15E0108F15E0108F15E0108F15E01088F
:10011000F15E0108F15E010895BF0008F15E01087B
:10012000ADBF0008F15E0108BDBF0008CDBF0008EB
:10013000DDBF0008F15E0108F15E0108F15E010813
:10014000EDBF0008FDBF0008F15E01080DC000080A
:100150001DC000082DC000083DC000084DC00008AB
:100160005DC000086DC00008F15E0108F15E010885
:10017000F15E0108F15E0108F15E01080000000077
:08018000F15E0108F15E0108C7
:1001900081F0004102E000BF83F0004330B54FEA38
:1001A00041044FEA430594EA050F08BF90EA020FA5
:1001B0001FBF54EA000C55EA020C7FEA645C7FEA38
:1001C000655C00F0E2804FEA5454D4EB5555B8BF5B
:1001D0006D420CDD2C4480EA020281EA030382EACC
:1001E000000083EA010180EA020281EA0303362D5E
:1001F00088BF30BD11F0004F4FEA01314FF4801C31
:100200004CEA113102D0404261EB410113F0004F42
:100210004FEA03334CEA133302D0524263EB4303F9
:1002200094EA050F00F0A780A4F10104D5F1200E97
:100230000DDB02FA0EFC22FA05F2801841F10001F2
:1002400003FA0EF2801843FA05F359410EE0A5F1C6
:1002500020050EF1200E012A03FA0EFC28BF4CF0F7
:10026000020C43FA05F3C01851EBE37101F00045AD
:1002700007D54FF0000EDCF1000C7EEB00006EEBBA
:100280000101B1F5801F1BD3B1F5001F0CD3490844
:100290005FEA30004FEA3C0C04F101044FEA44529B
:1002A00012F5800F80F09A80BCF1004F08BF5FEA22
:1002B000500C50F1000041EB045141EA050130BD02
:1002C0005FEA4C0C404141EB0101013C28BFB1F514
:1002D000801FE9D291F0000F04BF01460020B1FA5F
:1002E00081F308BF2033A3F10B03B3F120020CDA32
:1002F0000C3208DD02F1140CC2F10C0201FA0CF010
:1003000021FA02F10CE002F11402D8BFC2F1200C74
:1003100001FA02F120FA0CFCDCBF41EA0C0190402A
:10032000E41AA2BF01EB0451294330BD6FEA040473
:100330001F3C1CDA0C340EDC04F11404C4F120025E
:1003400020FA04F001FA02F340EA030021FA04F370
:1003500045EA030130BDC4F10C04C4F1200220FAC7
:1003600002F001FA04F340EA0300294630BD21FA05
:1003700004F0294630BD94F0000F83F4801306BFCB
:1003800081F480110134013D4EE77FEA645C18BFBF
:100390007FEA655C29D094EA050F08BF90EA020F56
:1003A00005D054EA000C04BF1946104630BD91EA4E
:1003B000030F1EBF0021002030BD5FEA545C05D151
:1003C0004000494128BF41F0004130BD14F5800490
:1003D0003CBF01F5801130BD01F0004545F0FE4104
:1003E00041F470014FF0000030BD7FEA645C1ABF39
:1003F000194610467FEA655C1CBF0B46024650EA70
:10040000013406BF52EA033591EA030F41F400219B
:1004100030BD00BF90F0000F04BF0021704730B521
:100420004FF4806404F132044FF000054FF00001F6
:1004300050E700BF90F0000F04BF0021704730B5B7
:100440004FF4806404F1320410F0004548BF40428C
:100450004FF000013EE700BF42004FEAE2014FEAE1
:1004600031014FEA02701FBF12F07F4393F07F4FBC
:1004700081F06051704732F07F4208BF704793F0BF
:100480007F4F04BF41F40021704730B54FF46074D2
:1004900001F0004521F000411CE700BF50EA0102D5
:1004A00008BF704730B54FF000050AE050EA01027E
:1004B00008BF704730B511F0004502D5404261EBEE
:1004C00041014FF4806404F132045FEA915C3FF42F
:1004D000D8AE4FF003025FEADC0C18BF03325FEACC
:1004E000DC0C18BF033202EBDC02C2F1200300FA7D
:1004F00003FC20FA02F001FA03FE40EA0E0021FAA2
:1005000002F11444BDE600BF4FF0FF3C06E000BF1F
:100510004FF0010C02E000BF4FF0010C4DF804CD8C
:100520004FEA410C7FEA6C5C4FEA430C18BF7FEA4C
:100530006C5C1BD001B050EA410C0CBF52EA430C7A
:1005400091EA030F02BF90EA020F0020704710F1FA
:10055000000F91EA030F58BF994208BF90422CBF89
:10056000D8176FEAE37040F0010070474FEA410C82
:100570007FEA6C5C02D150EA013C07D14FEA430CA0
:100580007FEA6C5CD6D152EA033CD3D05DF8040B11
:10059000704700BF8446104662468C461946634643
:1005A00000E000BF01B5FFF7B7FF002848BF10F11A
:1005B000000F01BD4DF808EDFFF7F4FF0CBF01205F
:1005C00000205DF808FB00BF4DF808EDFFF7EAFFDB
:1005D00034BF012000205DF808FB00BF4DF808ED96
:1005E000FFF7E0FF94BF012000205DF808FB00BF8B
:1005F0004DF808EDFFF7CEFF94BF012000205DF815
:1006000008FB00BF4DF808EDFFF7C4FF34BF012021
:1006100000205DF808FB00BF53B94AB9002908BFA4
:1006200000281CBF4FF0FF314FF0FF3000F00CB836
:10063000ADF1080C6DE904CE17F07EF9DDF804E0A9
:10064000DDE9022304B07047704700BF10F8012BAA
:1006500011F8013B012A28BF9A42F7D0D01A7047FF
:100660000348044B834202D0034B03B11847704741
:10067000C4030020C4030020000000000548064B0E
:100680001B1AD90F01EBA301491002D0034B03B190
:1006900018477047C4030020C40300200000000076
:1006A00010B5064C237843B9FFF7DAFF044B13B1BA
:1006B0000448AFF300800123237010BDC80300205D
:1006C00000000000AC7C010808B5054B1BB10549D2
:1006D0000548AFF30080BDE80840FFF7CFBF00BF7B
:1006E00000000000CC030020AC7C0108024403465B
:1006F000934200D1704703F8011BF9E72D4B1B68AB
:10070000834270B5044653D0C3691BB3DB6863B141
:100710000025E369DB685959B1B90435802DF8D15A
:10072000E3692046D96800F06DF8E369196811B1F2
:10073000204600F067F8E3699D685DB129462046D0
:100740002D6800F05FF8F8E70E68204600F05AF8D0
:100750003146E1E7616911B1204600F053F8E169E3
:1007600011B1204600F04EF8216B11B1204600F087
:1007700049F8616B11B1204600F044F8A16B11B14A
:10078000204600F03FF8A16C11B1204600F03AF885
:10079000616C11B1204600F035F8E16A11B12046D4
:1007A00000F030F8236A1BB12046BDE870401847BE
:1007B00070BD00BF0000002070B50D4B0D4D5B1BE0
:1007C0009C100026A64209D117F070FA0A4D0B4B77
:1007D0005B1B9C100026A64205D170BD55F8043B5A
:1007E00098470136EEE755F8043B98470136F2E7A3
:1007F00070960108709601087096010874960108B9
:100800007047704738B50546002941D051F8043C7F
:100810000C1F002BB8BFE41800F0E0F81D4A136865
:1008200033B9636014602846BDE8384000F0DCB896
:10083000A34208D9206821188B4201BF19685B6860
:1008400009182160EDE71A465B680BB1A342FAD99B
:1008500011685018A0420BD12068014450188342FF
:100860001160E0D118685B68536008441060DAE7F3
:1008700002D90C232B60D6E7206821188B4204BFD5
:1008800019685B68636004BF091821605460CAE797
:1008900038BD00BF2805002070B50F4E0C463168EA
:1008A000054611B900F0A6F830602146284600F050
:1008B000A1F8431C03D14FF0FF34204670BDC41C87
:1008C00024F00304A042F8D0211A284600F092F840
:1008D0000130F2D1EFE700BF240500202DE9F843F5
:1008E000CD1C25F0030508350C2D38BF0C25002D37
:1008F000064601DBA94204D90C2333600020BDE881
:10090000F883DFF8D48000F069F8D8F800301C468E
:1009100044BB29463046FFF7BFFF431C044658D16D
:10092000D8F800402746002F43D1002C4BD0236835
:100930003946304604EB030900F05CF8814542D1AA
:1009400021686D1A29463046FFF7A6FF01303AD0DC
:1009500023682B442360D8F800305A6862BBC8F87B
:1009600000700FE02268521B20D40B2A17D961199E
:10097000A342256018BF5960636808BFC8F800101B
:1009800062514B60304600F02FF804F10B00231D3C
:1009900020F00700C21A1CBF1B1AA350AFE7626801
:1009A000A3420CBFC8F800205A60EBE723466468F6
:1009B000AEE73C467F68B6E71A465B68A342FBD1C8
:1009C00000235360DEE70C233360304600F00CF860
:1009D00094E70560D6E700BF280500200148FFF72F
:1009E0000FBF00BF200500200148FFF70ABF00BF6E
:1009F0002005002038B5064D0023044608462B602C
:100A000017F046F9431C02D12B6803B1236038BDAF
:100A10001C05002008B50B4B1A6842F400721A60DE
:100A20001A6842F480621A601A6842F480721A608E
:100A3000032000F0F7FD0F200BF0CAF90BF09EF930
:100A4000002008BD003C0240034A1168034B1B789C
:100A50000B441360704700BF2C050020500000209D
:100A6000014B1868704700BF2C05002038B50446BC
:100A7000FFF7F6FF0546B4F1FF3F02D0044B1B78A9
:100A80001C44FFF7EDFF401BA042FAD338BD00BF66
:100A9000500000204A4B5A6822F440325A605A688B
:100AA00041680A435A600268536823F480735360B4
:100AB00002685368016943EA01235360026853687E
:100AC00023F0407353600268536881680B4353609E
:100AD0000268936823F40063936002689368C168B6
:100AE0000B439360826A374B9A4257D002689368EF
:100AF00023F07063936002689368816A0B4393608C
:100B00000268936823F04053936002689368C16A57
:100B10000B4393600268936823F0020393600268BA
:100B20009368017E43EA4103936090F82030002BE4
:100B30003FD00268536843F400635360026853680F
:100B400023F46043536001684B68426A013A43EA08
:100B500042334B600268D36A23F47003D3620168A6
:100B6000CB6AC269013A43EA0253CB6202689368D6
:100B700023F4007393600268936890F8301043EA9E
:100B8000412393600268936823F480639360026852
:100B90009368416943EA81239360704702689368D0
:100BA00023F0706393600268936823F0405393606E
:100BB000B0E70268536823F400635360CAE700BFDC
:100BC000002301400100000F38B310B50446036C48
:100BD00043B1236C13F0100F0BD00120002384F8D5
:100BE0003C3010BD0AF0C8F90023636484F83C303F
:100BF000EFE7236C23F4885323F0020343F002034E
:100C000023642046FFF746FF00206064236C23F036
:100C1000030343F001032364E0E701207047000071
:100C200030B482B00022019290F83C20012A00F0FA
:100C3000B6800346012280F83C200A68092A40D980
:100C40000468E06892B202EB42021E3A4FF0070CD1
:100C50000CFA02F220EA0202E2601C68E0680A88EC
:100C600002EB42021E3A8D6805FA02F20243E2608C
:100C70004A68062A3CD81C68606B02EB8202053A7F
:100C80004FF01F0C0CFA02F220EA020262631C68A9
:100C9000606B4A6802EB8202053AB1F800C00CFAB8
:100CA00002F20243626318683E4A904250D01868CC
:100CB0003C4A904255D0002083F83C0002B030BC42
:100CC00070470468206992B202EB42024FF0070CB1
:100CD0000CFA02F220EA020222611C6820690A88EA
:100CE00002EB42028D6805FA02F202432261BFE77D
:100CF0000C2A16D81D68286B02EB8202233A1F24A7
:100D000004FA02F220EA02022A631D68286B4A688C
:100D100002EB8202233A0C8804FA02F202432A63AD
:100D2000C1E71D68E86A02EB8202413A1F2404FA17
:100D300002F220EA0202EA621D68E86A4A6802EBEF
:100D40008202413A0C8804FA02F20243EA62AAE7FC
:100D50000A68122AABD11448426842F48002426009
:100D6000A5E70A68103A012AA5D80F48426842F45C
:100D7000000242600A68102A9DD10C4A12680C4990
:100D8000A1FB0212920C02EB82025200019202E0DD
:100D9000019A013A0192019A002AF9D18BE70220C7
:100DA0008CE700BF0020014000230140E400002048
:100DB00083DE1B43002800F0A18038B5044690F87C
:100DC0002030D3B12268136843F001031360FFF7AA
:100DD00047FE054623685A6812F0010F10D1FFF74D
:100DE0003FFE401B0A28F5D9636A43F4003363626F
:100DF000052384F82030012038BD0AF03BF9E1E7F3
:100E00001A6822F002021A60FFF72AFE05462368DC
:100E10005A6812F0020F0DD0FFF722FE401B0A287D
:100E2000F5D9636A43F400336362052384F8203004
:100E30000120E1E7227E012A3DD01A6822F08002DB
:100E40001A60637E012B3BD02268136823F04003B5
:100E50001360A37E012B39D02268136823F020038E
:100E60001360E37E012B37D02268136843F0100330
:100E70001360237F012B35D02268136823F0080309
:100E80001360637F012B33D02268136823F00403BF
:100E90001360A368E2681343226913436269134332
:100EA0006268013A21681343CB610020606201232C
:100EB00084F82030A0E71A6842F080021A60C0E788
:100EC0002268136843F040031360C2E72268136886
:100ED00043F020031360C4E72268136823F0100373
:100EE0001360C6E72268136843F008031360C8E77D
:100EF0002268136843F004031360CAE701207047B7
:100F000090F82030013BDBB2012B05D9436A43F452
:100F1000802343620120704730B5464BD3F800224E
:100F200042F00102C3F80022D3F8002222F47C52DE
:100F3000C3F80022D3F80022486A42EA0022C3F82C
:100F400000224A6902F01F02012000FA02F2D3F8DF
:100F50001C026FEA020C20EA0200C3F81C02CB69F3
:100F6000C3B9344BD3F80C020CEA0000C3F80C02EE
:100F70008C884869CD6844EA0544483043F83040DD
:100F80008C68088840EA04404C6904F1480E03EB81
:100F9000CE035860CB69012B1ED08B69002B33D157
:100FA0002448D0F804320CEA0303C0F804320B6979
:100FB0008BBB2048D0F814320CEA0303C0F814327B
:100FC0000B6A012B2ED01B4AD2F8003223F001030A
:100FD000C2F80032002030BD164BD3F80C0210438B
:100FE000C3F80C028C8848690D6844EA054448300F
:100FF00043F8304088894C698D6840EA05404834A0
:1010000003EBC4035860C8E70A48D0F8043213431E
:10101000C0F80432CBE70748D0F814321343C0F8C5
:101020001432CDE70349D1F81C321343C1F81C3206
:10103000C9E700BF0064004070B5044690F8203056
:10104000012B06D0436A43F4002343620126304655
:1010500070BDDEB2022380F820300268136823F0EE
:1010600001031360FFF7FCFC054623685B6813F07F
:10107000010F0CD0FFF7F4FC431B0A2BF5D9636A70
:1010800043F400336362052384F82030DFE7002651
:101090006662DCE730B590F820C00468A4680CF103
:1010A000FF3C5FFA8CFCBCF1010F6BD814F0E05FE1
:1010B00062D0C4F3016CBCF1020F05D9436A43F45A
:1010C00000034362012062E0012404FA0CF41C6076
:1010D0008B68002B3DD10D68CB68046843EA455509
:1010E0000CF118031B01E55003680C690CF1180E94
:1010F00003EB0E135C600B7D012B35D0D179937916
:101100001B0443EA0163517943EA0123147901681E
:10111000234301EB0C11C1F88C31D17893781B0477
:1011200043EA0163517843EA0123117802680B43D3
:1011300002EB0C12C2F8883102680CF1180C4FEA6D
:101140000C1C52F80C3043F0010342F80C30002024
:101150001DE04C6843EAC403CC6823430CF1180437
:10116000240105682B51BFE7036803EB0E13596890
:1011700041F480715960C1E7436A43F4001343624C
:10118000012004E0436A43F480234362012030BD20
:1011900090F82030013BDBB2012B01D900207047D1
:1011A0000368986810F0806000D001209A6812F0FF
:1011B000006F00D001309B6813F0805FEFD00130EA
:1011C000704790F820C00CF1FF3C5FFA8CFCBCF13A
:1011D000010F00F2958030B451B90468E46814F04E
:1011E000030F10D1436A43F400134362012077E0F8
:1011F0000468246914F0030F05D1436A43F4001313
:10120000436201206CE001F11B04240105682C59A4
:1012100004F004049460002C64D101F11B04240147
:1012200005682C59640D1460046801F11B0C4FEA29
:101230000C1C54F80C4004F00204D46004686444AC
:10124000646804F00F041461046864446468C4F3BF
:1012500007249461046864446468240C546102683F
:1012600002EB0112D2F8B8211A70026802EB0112E7
:10127000D2F8B821C2F307225A70026802EB0112B9
:10128000D2F8B821C2F307429A70026802EB011249
:10129000D2F8B821120EDA70026802EB0112D2F80D
:1012A000BC211A71026802EB0112D2F8BC21C2F310
:1012B00007225A71026802EB0112D2F8BC21C2F374
:1012C00007429A71026802EB0112D2F8BC21120E99
:1012D000DA7179B90268D36843F02003D360002043
:1012E00030BC704701F11B04240105682C59E40847
:1012F000546099E70268136943F020031361EEE735
:10130000436A43F4802343620120704790F8203001
:10131000013BDBB2012B01D90020704721B90368E2
:10132000D86800F0030070470368186900F00300F4
:10133000704790F82030013BDBB2012B05D9436A9E
:1013400043F48023436201207047026853690B43D2
:10135000536100207047704770477047704770476F
:101360007047704770477047704770472DE9F84FD6
:10137000054603685C69D3F804809F68D3F80CA025
:10138000D3F81090D3F818B014F001063BD017F042
:10139000010616D001229A6017F0020F08D117F04B
:1013A000040F0CD117F0080606D04FF4805608E061
:1013B000FFF7D1FF002604E0FFF7D0FF01E04FF474
:1013C000006617F4807F0DD02B684FF480729A600E
:1013D00017F4007F40F0968017F4806F00F096803D
:1013E00046F4005617F4803F0DD02B684FF480323E
:1013F0009A6017F4003F40F0938017F4802F00F0BC
:10140000938046F4004614F0080F07D01AF0100F2E
:1014100004D046F400762B681022DA6014F0040F32
:1014200003D01AF0080F40F0898014F0020F05D0A5
:101430002B68DB6813F0030F40F0878014F0400F37
:1014400007D019F0100F04D046F480662B681022E4
:101450001A6114F0200F02D019F0080F79D114F09E
:10146000100F04D02B681B6913F0030F78D114F40C
:10147000003F02D018F0100F76D114F4803F02D054
:1014800018F0080F77D114F4004F37D018F0040F7C
:1014900031D014F4807F04D01BF0010F01D046F04E
:1014A000010614F4007F04D01BF0020F01D046F0B7
:1014B000020614F4806F04D01BF0040F01D046F034
:1014C000040614F4006F16D01BF0700B13D0BBF1A0
:1014D000400F66D056D8BBF1200F5CD0BBF1300F67
:1014E0005CD0BBF1100F01D146F008062A68936961
:1014F00023F0700393612B6804225A60002E56D1AA
:10150000BDE8F88F2846FFF727FF6BE717F4006F59
:1015100002D046F4804665E72846FFF720FF61E7E2
:101520002846FFF71AFF6EE717F4002F02D046F4A3
:10153000803668E72846FFF713FF64E72B68082228
:10154000DA602846FFF70DFF6FE728460FF094FF9B
:1015500074E72B6808221A612846FFF703FF7EE72D
:1015600028460FF08EFF82E72B6810225A6028462B
:10157000FFF7F9FE81E72B6808225A602846FFF73B
:10158000F3FE80E7BBF1500F0ED0BBF1600FADD181
:1015900046F48076AAE746F01006A7E746F0200654
:1015A000A4E746F04006A1E746F080069EE76B6A96
:1015B00033436B622846FFF7D8FEA1E7002808DB1B
:1015C0000901C9B200F1604000F5614080F80013E4
:1015D000704700F00F000901C9B2014B1954704760
:1015E00014ED00E000B500F00700C0F1070CBCF1FD
:1015F000040F28BF4FF0040C031D062B0FD9C31E88
:101600004FF0FF3E0EFA0CF021EA000199400EFA6D
:1016100003FE22EA0E0241EA02005DF804FB002309
:10162000EEE70000074AD36823F4E0631B041B0CB9
:10163000000200F4E060034343F0BF6343F400336F
:10164000D360704700ED00E010B50446054BD86844
:10165000C0F30220FFF7C6FF01462046FFF7AEFFAA
:1016600010BD00BF00ED00E0002807DB00F01F0206
:10167000400901239340024A42F82030704700BFDE
:1016800000E100E058B110B5044643791BB10123D5
:101690006371002010BD037109F09CFDF7E7012084
:1016A000704770B110B50446037933B1022323713A
:1016B000002020610123237110BD437109F0C4FD96
:1016C000F4E701207047704710B5044603681A68B4
:1016D00012F4005F03D05A6B12F4005F09D1236843
:1016E0001A6812F0005F03D05A6B12F0005F11D13C
:1016F00010BD04220271026942F0010202614FF43E
:1017000000525A630268136823F480531360FFF792
:10171000DAFFE4E704222271226942F00202226128
:101720004FF000525A632268136823F0805313600D
:10173000204600F02DF8DBE70346084659790129D9
:1017400024D010B54FF0010E83F805E00221197185
:101750001C68216802F0100240F6FE7C0CFA02FCC4
:1017600021EA0C0C016840680143914041EA0C01F8
:1017700021601C682168C02000FA02F221EA0202FE
:10178000226083F804E00020587110BD02207047E9
:10179000704730B405682C6824F480242C600468F9
:1017A00063608368402B05D0036899600368DA6042
:1017B00030BC704703689A600368D960F8E700009E
:1017C00010B40368D9B210390A4AA2FB01421209C7
:1017D000094CA25CC2655F2907D96FF30903043382
:1017E0008365806D5DF8044B70476FF30903836573
:1017F000F7E700BFABAAAAAA087D0108836A82693D
:1018000092B9012B0AD0022B02D00BB100207047F5
:10181000C36A13F0807F28D100207047C36AB3F1F8
:10182000C07F24D000207047B2F5005F09D0022BA2
:1018300025D9032B25D1C36A13F0807F23D1002043
:101840007047032B03D8DFE803F01404140A0020C8
:101850007047C36A13F0807F0DD100207047C36AC0
:10186000B3F1C07F09D000207047012070470120EC
:101870007047012070470120704701207047012008
:1018800070470020704701207047000070B5044683
:10189000FFF7E6F8002C5BD00546022384F83530CC
:1018A000002384F834302268136823F001031360A6
:1018B00023681A6812F0010F0AD0FFF7D1F8431B12
:1018C000052BF5D920236365032084F8350070BD0E
:1018D0001A68204911406268A0680243E068024328
:1018E0002069024360690243A0690243E069024340
:1018F000206A02430A43616A04291ED01A602668DE
:10190000756925F00705636A1D43042B07D1A36A97
:101910001D43E36A1BB12046FFF770FF90B9756164
:101920002046FFF74DFFE26D3F2393408360002088
:101930006065012384F83530C9E7E16A206B014313
:101940000A43DBE740236365012084F83500BEE7E6
:101950000120BCE73F8010F038B50446856D90F853
:10196000340001282AD0012084F8340094F835008E
:10197000012804D0002384F83430022038BD02202E
:1019800084F83500002060652046FFF702FFE26D15
:101990003F239340AB602268136843F01603136043
:1019A000236C23B12268136843F008031360226894
:1019B000136843F0010313600020DFE70220DDE736
:1019C00070B50446866DFFF74BF894F83530022B5E
:1019D00006D080236365002384F83430012070BD75
:1019E00005462268136823F01603136022685369C2
:1019F00023F080035361236CE3B12268136823F062
:101A0000080313602268136823F00103136023683E
:101A10001B6813F0010F11D0FFF722F8431B052BB1
:101A2000F5D920236365032084F83500002384F86A
:101A30003430D4E7A36C002BDFD1E3E7E26D3F2322
:101A40009340B360012384F83530002084F83400DB
:101A5000C5E790F83530022B03D080234365012081
:101A60007047052380F835300268136823F00103BE
:101A70001360002070470000F0B583B004460023D7
:101A80000193724B1D68724BA3FB0535AD0A876D40
:101A90003E68C26D08239340334210D003681A6831
:101AA00012F0040F0BD01A6822F004021A60C26D03
:101AB00008239340BB60436D43F001034365E26D2F
:101AC00001239340334209D02268526912F0800FFB
:101AD00004D0BB60636D43F002036365E26D0423D1
:101AE0009340334209D02268126812F0020F04D0EA
:101AF000BB60636D43F004036365E26D10239340A4
:101B0000334224D02268126812F0080F1FD0BB6045
:101B100023681A6812F4802F0DD01B6813F4002F6D
:101B200004D1236C9BB12046984710E0A36C73B19D
:101B3000204698470BE01A6812F4807F03D11A6898
:101B400022F008021A60236C0BB120469847E26D20
:101B500020239340334254D02268126812F0100FB1
:101B60004FD0BB6094F83530052B0ED023681A682F
:101B700012F4802F33D01B6813F4002F2AD1636C2A
:101B8000002B3ED0204698473BE02268136823F0A4
:101B9000160313602268536923F080035361236C9A
:101BA000A3B12268136823F008031360E26D3F239A
:101BB0009340BB60012384F83530002384F834302F
:101BC000236D002B3FD0204698473CE0A36C002BB0
:101BD000E7D1EBE7E36BA3B12046984711E01A6821
:101BE00012F4807F09D11A6822F010021A600123D2
:101BF00084F83530002384F83430E36B0BB1204691
:101C00009847636DFBB1636D13F0010F17D0052387
:101C100084F835302268136823F001031360019BB8
:101C200001330193AB4204D823681B6813F0010F02
:101C3000F5D1012384F83530002384F83430E36C87
:101C40000BB12046984703B0F0BD00BFE400002070
:101C5000B5814E1B90F8350070470000204BDB68C3
:101C600013F0100F07D01F4AD36943F01003D3615C
:101C70001B4B1022DA601A4BDB6813F0200F07D0E1
:101C8000184AD36943F00803D361154B2022DA6068
:101C9000134BDB6813F0400F07D0124AD36943F0AF
:101CA0000403D3610E4B4022DA600D4BDB6813F066
:101CB000800F07D00B4AD36943F00203D361084B6E
:101CC0008022DA60064BDB6813F0020F07D0054A6A
:101CD000D36943F02003D361014B0222DA607047DD
:101CE000003C0240300500207047704710B5384B6B
:101CF000DB6813F0F20F11D0364B1B78012B38D074
:101D0000344B1B78022B3AD0324B5C69FFF7A6FFAD
:101D10002046FFF7EAFF2F4B00221A702C4BDB689E
:101D200013F0010F11D02A4B0122DA60294B1B78E6
:101D3000934227D0274B1B78022B41D0254B586963
:101D4000FFF7D2FF234B00221A70224B1B787BB97E
:101D50001F4B1A6922F0FF021A611A6922F0807281
:101D60001A611A6922F000721A611A4B00221A765F
:101D700010BD184BDC684FF0FF32DA60C6E7154B38
:101D80001C69C3E7134B5A68013A5A605B685BB140
:101D9000104CE068FFF7A8FFE3680133E360E068F8
:101DA000217A00F019F8D0E70A4B4FF0FF34DC60DD
:101DB00000221A7000F036F82046FFF795FFC4E7BE
:101DC00000F030F8034B1869FFF78EFFBAE700BF49
:101DD000003C024030050020012905D0022906D030
:101DE00039B14FF4407104E04FF4807101E04FF4D9
:101DF00000710B4B1A6922F440721A611A690A4386
:101E00001A611A6922F0F8021A611A6942EAC000DE
:101E100040F0020018611A6942F480321A6170477A
:101E2000003C0240164B1B6813F4007F10D0144B8B
:101E30001A6822F400721A601A6842F400621A608A
:101E40001A6822F400621A601A6842F400721A607A
:101E50000B4B1B6813F4806F10D0094B1A6822F4E7
:101E600080621A601A6842F480521A601A6822F47A
:101E700080521A601A6842F480621A60704700BF8C
:101E8000003C024000230F2B00F2E98070B582B0C5
:101E900065E085684FEA430E032404FA0EF425EA50
:101EA0000405CC6804FA0EF42C438460446824EAE8
:101EB00002044A68C2F300129A40224342605CE086
:101EC000DC08083450F8242003F00705AD004FF07B
:101ED0000F0E0EFA05FE22EA0E0E0A69AA4042EA29
:101EE0000E0240F824205CE0072200E0002202FA03
:101EF0000EF22A4302345A4D45F82420594A946878
:101F00006FEA0C0224EA0C054E6816F4801F01D01B
:101F10004CEA0405534CA560E46802EA04054E68E7
:101F200016F4001F01D04CEA04054E4CE5606468CD
:101F300002EA04054E6816F4003F01D04CEA04059D
:101F4000484C6560246822404D6815F4803F01D0FC
:101F50004CEA0402434C226001330F2B7DD801224E
:101F60009A400C6804EA020C32EA0404F4D14C688A
:101F700004F00304013C012C8BD94A6802F00302EF
:101F8000032A09D0C4685D000322AA4024EA02049F
:101F90008A68AA402243C2604A6802F00302022A09
:101FA0008ED004684FEA430E032202FA0EF224EAAE
:101FB00002044A6802F0030202FA0EF222430260AF
:101FC0004A6812F4403FC7D000220192264A546C5E
:101FD00044F480445464526C02F480420192019AA9
:101FE0009C08A51C1E4A52F8255003F0030E4FEA28
:101FF0008E0E0F2202FA0EF225EA02051B4A9042CB
:102000003FF474AF02F5806290421AD002F580620C
:10201000904218D002F58062904216D002F580629C
:10202000904214D002F58062904212D002F5806294
:10203000904210D002F5806290423FF455AF0822E2
:1020400055E7012253E7022251E703224FE704221A
:102050004DE705224BE7062249E702B070BD704705
:1020600000380140003C01400038024000000240BE
:102070000369194201D001207047002070470AB15E
:1020800081617047090481617047000008B5054B04
:102090005B69034200D108BD024B58610FF012FB8F
:1020A000F9E700BF003C014090F83E30402B10D0D3
:1020B0000369B3F5804F1BD0036D002B38D1436CFF
:1020C000C3F3C813026803F0060343F0F00313617F
:1020D0007047036D2BB9436C026803F0FE03136174
:1020E0007047436C026843F00103DBB21361704731
:1020F00090F83D30212B0FD0436C026843F0010370
:10210000DBB21361436B6BB1DB6B5BB1026853688D
:1021100043F4006353607047436C026803F0FE03AE
:102120001361EFE7836B33B1DB6B002BEED102E081
:10213000036D012B00D07047436CC3F3C8130268D2
:1021400003F0060343F0F1031361F4E7436C026804
:10215000DBB21361436B3BB1DB6B2BB1026853689D
:1021600043F4006353607047836B002BFBD0DB6B41
:10217000002BF3D1F7E7000010B48BB090F83E309D
:10218000C16A046B90F83D20222A0BD000230993EA
:1021900003685A6909929B690993099B0BB05DF822
:1021A000044B7047DBB2026D0AB9402B17D0036DA8
:1021B0001BB90369B3F5404F1AD0438D9BB2002B76
:1021C00026D1029303685A6902929A690292029A8E
:1021D0001A6842F400721A6000230365DEE70023E8
:1021E000009303685A6900929B690093009BD5E7AE
:1021F0000023019303685A6901929A690192019A36
:102200001A6842F480721A60036D01330365C5E7F2
:10221000438D9BB2012B26D0438D9BB2022B7CD0E9
:102220000268136843F48063136003685A6812F409
:10223000006F0FD0202900F2AE800829C0F0A780DF
:102240000839574ACA4012F0010F03D05A6842F4C5
:1022500080525A600023089303685A6908929B6968
:102260000893089BB8E711F5803F11D0082934D0B6
:10227000202932D0122C2ED0042940D002293ED061
:1022800010293CD00268136823F4806313603BE09C
:102290000268136823F48063136003685A6812F4B9
:1022A000006F0CD01A6822F480621A600023039336
:1022B00003685A6903929B690393039B8CE700228E
:1022C00004925A6904929A690492049A1A6842F430
:1022D00000721A6080E70129D0D00268136823F4E5
:1022E000806313600023069303685A6906929A6913
:1022F0000692069A1A6842F400721A606CE7026845
:10230000136843F4806313600023059303685A69DC
:1023100005929B690593059B5EE710290AD8214B1E
:10232000CB4013F0010F05D00268136843F48063BB
:10233000136009E00268136823F480631360026885
:10234000136843F40063136003685A6812F4006F63
:102350000DD0202917D8082912D30839104ACA40AD
:1023600012F0010F03D05A6842F480525A600023E1
:10237000079303685A6907929B690793079B2BE7AA
:102380000129F4D1EFE711F5803FF0D1EBE7012906
:102390007FF460AF5AE711F5803F7FF45BAF55E7FC
:1023A0000101000114000100438D9BB25BB1426A40
:1023B000036812781A61436A01334362438D9BB20A
:1023C000013B9BB243857047438D9BB25BB1036871
:1023D0001A69436A1A70436A01334362438D9BB2A0
:1023E000013B9BB24385704782B0002301930E4BA3
:1023F0001B68DB080D4AA2FB03231B0A03EB8303C4
:102400000193019B013B0193019B33B103681B685E
:1024100013F4007FF5D1002004E0036C43F02003A7
:102420000364012002B07047E400002089B5F8146D
:10243000C36AB3F52A0F04D0C36AB3F12A4F03D09D
:1024400070470123C36270470823C362F8E70000A6
:10245000002800F0CC8070B5044690F83D30002B89
:1024600077D0242384F83D302268136823F00103D9
:1024700013602268136843F40043136022681368F2
:1024800023F40043136002F045F862685A4B9A4205
:1024900064D85A4B98428CBF00230123002B40F094
:1024A000A8805749A1FB00318B0C25686A6822F08F
:1024B0003F0242EA91426A6021680A6A22F03F02C2
:1024C00066684D4DAE424FD8013313430B6221680D
:1024D000CA6922F44F4222F0FF026568464B9D42D2
:1024E0004CD8431E6D00B3FBF5F3013340F6FC708E
:1024F000034278D0C3F30B031A43CA6121680B6807
:1025000023F0C003E269206A024313430B60216891
:102510008B6823F4034323F0FF032269E06802433E
:1025200013438B602168CB6823F0FF036269A069C5
:1025300002431343CB602268136843F00103136026
:1025400000202064202384F83D30206384F83E007E
:1025500070BD80F83C3009F0BFF882E7294B984203
:102560008CBF0023012399E74FF4967505FB03F315
:10257000254DA5FB03539B090133A6E7A668BEB909
:10258000431E05EB450CB3FBFCF30133C3F30B0314
:10259000B3FA83F35B0943BBC6B9431E05EB45059C
:1025A000B3FBF5F30133C3F30B0343F40043A3E799
:1025B000431E05EB850C0CEB8C0CB3FBFCF30133D9
:1025C000C3F30B03B3FA83F35B09E4E7431E05EBA4
:1025D000850505EB8505B3FBF5F30133C3F30B0369
:1025E00043F4404388E7042386E7012384E701207E
:1025F00070470120ACE700BFA08601007F841E0069
:1026000083DE1B43FF083D00D34D621070477047C7
:1026100008B590F83D30DAB2438D9BB283B1416A80
:10262000036809781961436A01334362438D9BB2A1
:10263000013B9BB24385438D9BB20BB9292A00D045
:1026400008BD0268536823F4806353602123036349
:10265000282380F83D30FFF7DAFFF1E7704708B52F
:1026600090F83D30DAB2438D9BB283B103681969AB
:10267000436A1970436A01334362438D9BB2013B45
:102680009BB24385438D9BB20BB92A2A00D008BD6B
:102690000268536823F48063536022230363282372
:1026A00080F83D30FFF7DAFFF1E7704700B583B0FF
:1026B00090F83D3003F02803282B0CD00023019321
:1026C00002685169019192690192019A80F83C3047
:1026D00003B05DF804FB0268536823F48063536021
:1026E00011F0040F0BD0002311F0800F09D1828963
:1026F000002180F83C101946FFF7D7FFE8E70123D7
:10270000F2E7028BF4E7704708B590F83D30DBB292
:10271000C26A082A01D0202A01D1282B06D0212BF9
:102720001ED003686FF480625A6108BD1A4BC36201
:102730000268536823F4E063536003686FF48062B7
:102740005A610268136823F48063136000230363F3
:10275000202280F83D2080F83E30FFF7D4FFE4E7E8
:102760000D4BC36221230363202380F83D300023F7
:1027700080F83E300268536823F4E06353600368D6
:102780006FF480625A610268136823F480631360F7
:10279000FFF73DFFC9E700BF0000FFFF704708B526
:1027A000C26A90F83D30212B00D008BD438D9BB20A
:1027B00063B1426A036812781A61436A0133436263
:1027C000438D9BB2013B9BB24385EEE7082A04D0C0
:1027D000202A02D012F5803F18D10268536823F4F2
:1027E000E06353600268136843F4007313600023CE
:1027F0000363202380F83D3090F83E30402B15D005
:10280000002380F83E30FFF701FFCEE702685368EF
:1028100023F4E063536011230363002380F83E3008
:10282000202380F83D30FFF7F1FEBEE7002380F85B
:102830003E30FFF7B3FFB8E708B590F83D30026DC2
:102840009AB9C36C012B08D0836C0268C3F30723C9
:102850001361036D0133036508BD836C0268DBB24D
:102860001361036D02330365F6E7DBB2026D012AE3
:1028700023D0026D022AEFD1222B26D0428D92B2B4
:102880000AB1212B2AD0428D92B2002AE4D1212B09
:10289000E2D10268536823F4E0635360026813686E
:1028A00043F40073136000230363202280F83D206B
:1028B00080F83E30FFF772FFCEE7836C0268DBB230
:1028C0001361036D01330365C6E70268136843F4BF
:1028D00080731360036D01330365BDE7426A0368CB
:1028E00012781A61436A01334362438D9BB2013B04
:1028F0009BB24385B0E710B590F83D30DBB290F85D
:102900003E20D2B2C46A018D00293AD1212B02D0D7
:10291000402A41D010BD082C04D0202C02D014F540
:10292000803F18D10268536823F4E0635360026863
:10293000136843F40073136000230363202380F8BB
:102940003D3090F83E30402B15D0002380F83E30CB
:10295000FFF75CFEDEE70268536823F4E063536030
:1029600011230363002380F83E30202380F83D309C
:10297000FFF74CFECEE7002380F83E30FFF70EFF56
:10298000C8E7212BC4D1438D9BB243B90268536879
:1029900023F480635360BDE7222BBBD1F3E790F8AB
:1029A0003E30402B0CD0426A036812781A61436AA9
:1029B00001334362438D9BB2013B9BB24385A9E740
:1029C000FFF73AFFA6E708B5C26A438D9BB2042B16
:1029D00014D0438D9BB2032B22D0438D9BB2022B8C
:1029E00039D003681A69436A1A70436A0133436233
:1029F000438D9BB2013B9BB2438510E00268536854
:102A000023F48063536003681A69436A1A70436A47
:102A100001334362438D9BB2013B9BB2438508BDAA
:102A200001684B6823F480634B60042A06D0022AB5
:102A300004D00268136823F48063136003681A6982
:102A4000436A1A70436A01334362438D9BB2013B70
:102A50009BB24385E3E7013A0F2A15D8DFE802F07D
:102A6000080E140E1414141414141414141414084A
:102A70000268136823F4806313600AE00268136835
:102A800043F48063136004E00268136843F4007346
:102A9000136003681A69436A1A70426A531C4362DE
:102AA000438D9BB2013B9BB2438503681B69537006
:102AB000436A01334362438D9BB2013B9BB2438522
:102AC0000268536823F440735360202380F83D303C
:102AD00090F83E30402B07D0002380F83E30122380
:102AE00003630EF029FE9AE7002380F83E3003636B
:102AF0000EF04CFE93E7704790F83D30222B00D04B
:102B0000704710B50446438D9BB2032B15D903685B
:102B10001A69436A1A70436A01334362438D9BB258
:102B2000013B9BB24385438D9BB2032B0FD10268BF
:102B3000536823F48063536009E0C26A022A01D01B
:102B4000012B05D92268536823F48063536010BDBC
:102B5000FFF74AFC68BB2268136823F480631360A4
:102B60002268536823F4E063536023681A69636A38
:102B70001A70636A01336362638D9BB2013B9BB23F
:102B80006385202384F83D3094F83E30402B08D0F4
:102B9000002384F83E301223236320460EF0CCFD40
:102BA000D5E7002384F83E30236320460EF0EEFD87
:102BB000CDE72268536823F4E063536023681A6901
:102BC000636A1A70636A01336362638D9BB2013B6F
:102BD0009BB26385202384F83D30002384F83E3087
:102BE0002046FFF788FFB2E77047000000B583B0CA
:102BF00000230193806B90F83D20D2B2314B1B68CB
:102C0000DB083149A1FB03131B0A03EB8303C3EB6E
:102C1000C3030193019B43B1019B013B01930368F3
:102C20001B6813F4007FF5D103E0036C43F020032D
:102C30000364436B0BB10021D963836B0BB100219B
:102C4000D96301680B6823F480630B60002343851C
:102C5000436B0BB100211965836B0BB10021196522
:102C600001680B6823F001030B6090F83D30602B86
:102C70000ED002F02802282A14D0202380F83D30FC
:102C8000002380F83E30FFF736FF03B05DF804FB09
:102C9000202380F83D30002380F83E300364FFF7A6
:102CA000A3FFF2E70268136843F0010313600268B0
:102CB000136843F48063136000230363282380F8C0
:102CC0003D30E0E7E400002089B5F81410B5044673
:102CD00090F83D30DBB290F83E20102A36D0D1B2C9
:102CE000402933D003F02802282A37D022685268BE
:102CF00012F4006F07D1602B05D0202384F83D30FB
:102D0000002384F83E300023236323685A6812F4BA
:102D1000006F47D05A6822F400625A60636B93F8E0
:102D20003520012A20D0444A1A65606BFEF791FED7
:102D3000002848D02268136823F001031360202381
:102D400084F83D30606B036D98473CE0222BC9D17D
:102D500021680A6822F400620A60C3E70023236343
:102D6000282384F83D30D0E7A36B334A1A65A06B63
:102D7000FEF76FFE38B323685A6912F0400F05D092
:102D80001A69636A1A70636A01336362226813689E
:102D900023F001031360202384F83D30A06B036D02
:102DA000984710E094F83D20602A1FD05A6912F02D
:102DB000400F05D01A69636A1A70636A013363624F
:102DC0002046FFF798FE236C13F00F0F04D0226803
:102DD000536823F4E063536094F83D30DBB2226C17
:102DE00012F0040F01D0282B18D010BD202284F837
:102DF0003D20002222645A6912F0400F05D01A6962
:102E0000636A1A70636A013363622268136823F08D
:102E1000010313602046FFF7E7FED4E7074BE362A8
:102E200000232363202284F83D2084F83E3020468E
:102E3000FFF769FCD9E700BFED2B00080000FFFF9A
:102E400030B583B0044690F83D50EDB20268536847
:102E500023F4E06353600023019303685A690192ED
:102E60001A6842F001021A60019B0268136823F499
:102E70008063136003685A6812F4006F38D0222D03
:102E800021D02A2D1FD0426B1268526892B242851F
:102E9000428D92B21AB1026C42F0040202645A6886
:102EA00022F400625A60606BFEF7D4FE01281FD046
:102EB000636B444A1A65606BFEF7CBFDC0B1606B73
:102EC000036D984714E0A26B1268526892B2628553
:102ED000628D92B21AB1226C42F0040222645A68E6
:102EE00022F400625A60A06BFEF7B4FE012841D1C3
:102EF000638D9BB233B323685A6912F0040F0AD072
:102F00001A69636A1A70636A01336362638D9BB2E4
:102F1000013B9BB2638523685A6912F0400F0AD0C7
:102F20001A69636A1A70636A01336362638D9BB2C4
:102F3000013B9BB26385638D9BB21BB1236C43F055
:102F400004032364236C0BBB2A2D24D094F83D305A
:102F5000282B29D0236B222B01D0222D19D100231D
:102F60002363202284F83D2084F83E302046FFF77A
:102F700075FB0EE0A36B134A1A65A06BFEF769FDA3
:102F80000028B5D0A06B036D9847B1E72046FFF746
:102F90009DFE03B030BD00232363282384F83D3019
:102FA0002046FFF75BFBD1E7074BE3620023236377
:102FB000202284F83D2084F83E302046FFF7A3FB12
:102FC000E7E700BFED2B00080000FFFFF8B504465F
:102FD00003685868E66A94F83E10CDB294F83D2034
:102FE000D2B2102913D0402D11D0216C002979D0F4
:102FF0005D69002115F0020F77D010F4007F74D0C6
:10300000226C02B199692046FFF750FBF8BD9F6919
:10301000596911F0010F06D1B6F52A0FF6D0B6F1B5
:103020002A4F03D1F2E710F4007F29D111F0080FE5
:1030300002D010F4007F2AD111F0020F02D010F458
:10304000007F28D117F0040F31D05B6813F4006FB4
:10305000DCD111F0800F05D010F4806F02D011F098
:10306000040F1CD011F0040FD0D010F4007FCDD08D
:10307000212A18D0402DC9D12046FFF7DDFBC5E736
:103080002046FFF7D5F92046FFF70EF8BEE72046A9
:10309000FFF75CF8BAE72046FFF76EF8B6E7204680
:1030A000FFF729FCB2E72046FFF779FBAEE75B6844
:1030B00013F4006FAAD111F0400F05D010F4806F07
:1030C00002D011F0040F09D011F0040F9ED010F4BB
:1030D000007F9BD02046FFF776FC97E72046FFF75E
:1030E0000BFD93E799695D6984E715F0100F02D035
:1030F00010F4007F18D1212A1AD0292A18D015F0EF
:10310000400F05D010F4806F02D015F0040F28D0C6
:1031100015F0040F3FF47AAF10F4007F3FF476AF60
:103120002046FFF751F971E72046FFF789FE6DE76A
:1031300015F0800F05D010F4806F02D015F0040F49
:103140000BD015F0040F3FF461AF10F4007F3FF493
:103150005DAF2046FFF728F958E72046FFF758FAF9
:1031600054E72046FFF77BFA50E7F8B504460368BA
:103170005D695F6890F83E20D2B2C5F3002615F471
:10318000807F08D0C7F3002617F4807F03D06FF448
:1031900080715961012615F4007F08D017F4807FF3
:1031A00005D046F0020623686FF40071596115F4EA
:1031B000806F19D017F4807F16D0638D99B294F880
:1031C0003D30DBB2206B202A1BD023686FF4806176
:1031D000596146F00406102A01D0402A04D1226821
:1031E000136843F40073136015F4006F17D017F4DD
:1031F000807F14D046F0080623686FF400625A619D
:103200000EE00029E1D1212B05D0292B03D0282B5A
:10321000DBD12128D9D12046FFF776FAE4E72EB199
:10322000236C334323642046FFF750FDF8BD2DE99E
:10323000F04383B0D0F8008001EBC10300EB8303BF
:10324000DA6D5B6D9A4254D807460C469B1A01EB27
:10325000C10200EB8202926C9A4200D31A4602F13C
:1032600003094FEA990915E006F103094FEA9909A4
:1032700004EBC40507EB8505E96C3B7C0093B3B216
:10328000E2B2404603F0D1FFEB6C3344EB64EB6DEC
:103290003344EB6508EB441303F510639B699BB261
:1032A0004B4512D304EBC40307EB8303DA6D5B6D6C
:1032B0009A420AD24BB19B1A04EBC40207EB82027A
:1032C000966C9E42D0D31E46CEE704EBC40307EBB8
:1032D00083077A6DFB6D9A420FD804F00F04012228
:1032E000A240D8F8343823EA0203C8F83438002062
:1032F00000E0012003B0BDE8F0830020FAE770B5DC
:103300008AB0002800F090800546046890F8BD342B
:103310003BB3032385F8BD34E36B13F4807F01D105
:1033200000232B61286803F0A3FC2C4654F8106B93
:10333000EC460FCCACE80F000FCCACE80F0094E8E3
:1033400003008CE803002B1D0ECB304603F0D2FBAC
:10335000044658B1022385F8BD34012420460AB042
:1033600070BD80F8BC3409F0CDFBD2E7002128689D
:1033700004F063F9234616E003EBC30205EB820277
:10338000012182F83D1082F83C30A2F8443000213F
:1033900082F840109164D16403EBC30205EB820212
:1033A00051650133DBB269688B42E5D316E004EB6B
:1033B000C40305EB8303002283F87D2283F87C425B
:1033C00083F88022C3F88822C3F88C2204EBC4035C
:1033D00005EB8303C3F894220134E4B2A142E6D89A
:1033E0002C4654F8106BEC460FCCACE80F000FCC19
:1033F000ACE80F0094E803008CE803002B1D0ECB13
:10340000304603F091FC044620B1022385F8BD3418
:103410000124A3E7002385F83830012385F8BD3463
:10342000286804F0C9F899E7012497E7026890F842
:10343000BC34012B19D010B50446012380F8BC34EC
:10344000836A012B09D0206803F00CFC206804F08B
:10345000A5F8002084F8BC0410BD8369012BF2D0CC
:10346000936B43F480339363EDE7022070470000D1
:1034700070B504460D460068066C00EB411303F579
:1034800030639A682169012911D038498E4256D09B
:103490003DB905EBC50304EB8303D3F89432002B4D
:1034A0005ED0E9B2204609F079FB002070BD12F031
:1034B000080F09D02E498E42F7D912F4004FF4D0EC
:1034C0004FF400429A60F0E712F0200F02D0202261
:1034D0009A60EAE712F0280FE7D125498E4206D913
:1034E00012F4004F03D04FF400429A60DDE705EB81
:1034F000C50204EB8202D2F898121B69C3F31203CF
:10350000CB1AC2F89C327DB905EBC50204EB8202EE
:10351000D2F894226AB105EBC50204EB8202D2F81C
:103520008C121944C2F88C12E9B2204609F036FB1D
:10353000BBE704F2C442012104F0BEF8F4E712F440
:10354000004F03D04FF400429A60AEE712F0200F14
:1035500001D020229A60E9B2204609F01FFBA4E7BF
:1035600004F2C442002104F0A7F89AE70A31544F4C
:103570000A30544F38B5044603681D6C03EB411301
:10358000D3F8081B0E4A954207D903F5306311F4AE
:10359000004F02D04FF400429A60204609F0F6FA3C
:1035A000074B9D4202D92369012B01D0002038BD71
:1035B00004F2C4420121206804F07EF8F6E700BF5F
:1035C0000A30544F90F8BC34012B0DD010B504468E
:1035D000012380F8BC3480F83810006803F0CEFF77
:1035E000002084F8BC0410BD0220704738B50546A1
:1035F0008C4611F0800F29D101F00F0E0EEBCE0496
:10360000A40004F51E740444211D0EEBCE0E00EB45
:103610008E0E00208EF87D020CF00F0C81F800C099
:10362000CA600B714A780AB1A1F808C0022B1DD0FC
:1036300095F8BC34012B1CD0012385F8BC342868D4
:1036400003F04BFC002085F8BC0438BD01F00F00EE
:1036500000EBC001890038312944043100EBC0007F
:1036600005EB8000012480F83D40D5E700234B7135
:10367000DEE70220E9E710B504460A4611F0800FA4
:1036800020D101F00F0000EBC0039B0003F51E7377
:103690002344191D00EBC00004EB8000002380F8D8
:1036A0007D3202F00F020A7094F8BC34012B19D05D
:1036B000012384F8BC34206803F05CFC002084F80B
:1036C000BC0410BD01F00F0000EBC0039B003833B9
:1036D0002344191D00EBC00004EB8000012380F897
:1036E0003D30DEE70220ECE710B501F00F0404EBFB
:1036F000C401890001F51E710144043104EBC40CBE
:1037000000EB8C0CCCF88C22CCF894320023CCF853
:103710009C328CF87D328CF87C420369012B06D0F8
:1037200064B9DAB2006803F095FC002010BD04EB28
:10373000C40C00EB8C0CCCF89022F1E7DAB20068F4
:1037400003F08AFDF1E701F00F0101EBC10100EB8D
:103750008100D0F89C02704710B501F00F0404EB13
:10376000C401890038310144043104EBC40C00EB7E
:103770008C0CCCF84C20CCF854300023CCF85C30C6
:1037800001238CF83D308CF83C400369012B06D0B6
:1037900064B9DAB2006803F05DFC002010BD04EBF0
:1037A000C40C00EB8C0CCCF85020F1E7DAB20068C6
:1037B00003F052FDF1E738B501F00F05426895427C
:1037C00039D804460B4611F0800F1FD101EBC1011F
:1037D000890001F51E710144043103EBC30300EBC2
:1037E0008303002283F87D2201238B700D7094F8EF
:1037F000BC34012B21D0012384F8BC34206803F0B1
:1038000062FE8DB1002084F8BC0438BD05EBC50113
:10381000890038310144043105EBC50300EB830313
:10382000012283F83D20DFE704F2C442217C2068B6
:1038300003F042FFE6E70120E7E70220E5E701F0B9
:103840000F034268934231D810B5044611F0800F3F
:103850001ED103EBC301890001F51E71014404313F
:1038600003EBC30200EB8202002082F87D020022FB
:103870008A700B7094F8BC34012B19D0012384F8A2
:10388000BC34206803F04CFE002084F8BC0410BD5A
:1038900003EBC301890038310144043103EBC30257
:1038A00000EB8202012082F83D00E0E70120704732
:1038B0000220ECE708B511F0800F0CD101F00F01E8
:1038C00001EBC101890001F51E710144043100685A
:1038D00003F04CFC08BD01F00F0101EBC1018900B0
:1038E000383101440431F2E72DE9F04F83B004464A
:1038F0000568284603F09DFE10B103B0BDE8F08FC7
:103900000646206803F066FE0028F6D005F500673D
:10391000BB68C3F30D23C4F8FC34206803F05AFEDF
:1039200010F0020F04D02268536903F002035361C0
:10393000206803F04FFE10F0100F15D02268936935
:1039400023F010039361D5F8208008F00F0908F4E4
:10395000F013B3F5802F4CD0B3F5402F6FD0226811
:10396000936943F010039361206803F033FE10F471
:10397000002F76D1206803F02DFE10F4802F40F048
:10398000E080206803F026FE0028C0F263812068F2
:1039900003F020FE10F4006F09D0BB6813F0010F94
:1039A00040F070812268536903F40063536120681A
:1039B00003F010FE10F4805F40F06881206803F08F
:1039C00009FE10F4005F40F0B581206803F002FEAC
:1039D00010F0080F40F0C681206803F0FBFD10F0E6
:1039E000800F00F0D981AB6923F08003AB61012621
:1039F000C2E147F6F07318EA030FB0D04FEA181A85
:103A00004FEAC903019309EBC90B04EB8B0BC8F315
:103A10000A12DBF88C12284603F032FDDBF88C32F8
:103A2000CAF30A0A5344CBF88C32DBF89C32019A71
:103A30004A4404EB82025344C2F89C328FE70822C6
:103A400004F2C441284603F01BFD09EBC90304EB53
:103A50008303D3F89C22C8F30A184244C3F89C227B
:103A60007DE7206803F0BAFD8046B14635E005EBFE
:103A700049130122C3F8082B49462046FFF7F8FCFA
:103A80003CE005EB49130822C3F8082B49462046C1
:103A9000FFF770FD35E009EBC90304EB830393F8EE
:103AA0007F32012B41D005EB49130222C3F8082BCA
:103AB0001AF0200F04D005EB49132022C3F8082B7D
:103AC0001AF4005F05D005EB49134FF40052C3F818
:103AD000082B09F101094FEA5808B8F1000F3FF42B
:103AE00049AF18F0010FF4D05FFA89FB59462068FE
:103AF00003F084FD824610F0010FB8D11AF0080FD0
:103B0000BFD11AF0100F04D005EB49131022C3F8EF
:103B1000082B1AF0020FCBD06B6913F0800FBAD0CC
:103B20007B6843F480637B60B5E709EBC90304EB72
:103B30008303002283F87F225946204609F080F84B
:103B4000B1E7206803F052FD8046B14625E05946B2
:103B5000204609F02FF81AF0080F04D005EB49139E
:103B60000822C3F808291AF0100F04D005EB4913F6
:103B70001022C3F808291AF0400F04D005EB4913AE
:103B80004022C3F808291AF0020F40D11AF0800F22
:103B90005BD109F101094FEA5808B8F1000F3FF471
:103BA000F0AE18F0010FF4D05FFA89FB5946206897
:103BB00003F02DFD824610F0010FCCD009F00F026A
:103BC000012101FA02F27B6B23EA02037B6305EB1E
:103BD0004913C3F8081923698B42B8D109EBC9030B
:103BE00004EB8303DA6C996C0A44DA64B9F1000FD0
:103BF000ADD109EBC90304EB83035B6D002BA6D1A8
:103C000004F2C4420121206803F056FD9FE74946B3
:103C1000284603F033F809EBC90304EB830393F858
:103C20003F30012B05D005EB49130222C3F80829C8
:103C3000ACE709EBC90304EB8303002283F83F20C0
:103C40005946204609F002F8EDE749462046FFF7BD
:103C5000EEFA9EE77B6823F001037B6094F8F4346E
:103C6000012B08D0204608F0E5FF2268536903F0D5
:103C7000004353618BE6002184F8F414204600F0E1
:103C800041F9F2E7204608F0BDFF8BE67B6823F0A0
:103C900001037B601021206802F0F0FF1AE005EBC1
:103CA00046134FF67F31C3F80819D3F8002922F4E0
:103CB0000012C3F80029C3F8081BD3F8002B22F424
:103CC0000012C3F8002BD3F8002B42F00062C3F8B7
:103CD000002B01366368B342E1D8FB6943F001135E
:103CE000FB61236BDBB1D7F8843043F00B03C7F8DB
:103CF00084307B6C43F00B037B64D5F8003823F4ED
:103D0000FE63C5F8003804F2C442217C206803F049
:103D1000D3FC2268536903F4805353614EE67B69F8
:103D200043F4005343F02B037B613B6943F00B03E7
:103D30003B61E2E7206803F0B1FC206803F0BCF8C7
:103D4000E060266800F0E0FB0146227B304602F08E
:103D500017FF204608F03FFF2268536903F4005321
:103D6000536132E6204608F030FF2268536903F0C1
:103D70000803536130E601366368B3420CD906EBA1
:103D8000C60304EB830393F87F32012BF3D1F1B226
:103D90002046FFF78FFDEEE7206803F01BFC10F4D0
:103DA000801F27D1206803F015FC10F4001F5BD0A2
:103DB000012328E001366368B3421DD905EB4613A1
:103DC000D3F8002906EBC60304EB830393F84030D5
:103DD000012BEFD1002AEDDA06EBC60304EB8303D7
:103DE000012283F83F2066F07F01C9B22046FFF729
:103DF00061FDDFE70126DEE72268536903F48013E3
:103E00005361CFE7013362689A4228D905EB431228
:103E1000D2F8001B03EBC30204EB820292F880226B
:103E2000012AEFD10029EDDA01F48031D4F8FC2425
:103E300002F001029142E5D103EBC30204EB8202DE
:103E4000012182F87F12AA6942F08002AA616A69A0
:103E500012F0800FD6D17B6843F400737B60226838
:103E6000536903F400135361206803F0B3FB10F0AF
:103E7000804F10D1206803F0ADFB10F0040F3FF429
:103E80003CAD23685D6815F0040F0DD122685368BE
:103E90002B43536031E5204608F0DEFE226853696B
:103EA00003F080435361E5E7204608F0DBFEEDE7D1
:103EB00010B40468606A31B940EA0240A062002090
:103EC0005DF8044B70478C46A36A00EB1340002357
:103ED00008E003F1400104EB8101496800EB114067
:103EE0000133DBB20CF1FF318B42F2D340EA0240E6
:103EF0000CF13F0104EB81046060E0E70368596264
:103F00000020704770470000002800F0E08170B585
:103F100082B00446036813F0010F3BD09F4B9B68AF
:103F200003F00C03042B2CD09C4B9B6803F00C0378
:103F3000082B21D06368B3F5803F4FD0B3F5A02F95
:103F400052D0964B1A6822F480321A601A6822F412
:103F500080221A606368002B50D0FCF781FD054673
:103F60008E4B1B6813F4003F14D1FCF779FD401B06
:103F70006428F5D90320B1E1884B5B6813F4800F06
:103F8000D8D0864B1B6813F4003F03D06368002B26
:103F900000F09F81236813F0020F54D07F4B9B6881
:103FA00013F00C0F3ED07D4B9B6803F00C03082BE5
:103FB00033D0E368002B68D0794B01221A60FCF7FC
:103FC0004FFD0546754B1B6813F0020F54D1FCF7EB
:103FD00047FD401B0228F5D903207FE16F4A136893
:103FE00043F480331360B5E76C4B1A6842F48022C7
:103FF0001A601A6842F480321A60ABE7FCF730FDB1
:104000000546664B1B6813F4003FC3D0FCF728FD40
:10401000401B6428F5D9032060E1604B5B6813F412
:10402000800FC6D15D4B1B6813F0020F03D0E3680D
:10403000012B40F05081594A136823F0F80321699D
:1040400043EAC1031360236813F0080F42D0636989
:104050006BB3534B0122C3F8802EFCF701FD0546DC
:104060004E4B5B6F13F0020F34D1FCF7F9FC401B91
:104070000228F5D9032031E1484A136823F0F803F8
:10408000216943EAC1031360DDE7454B00221A6052
:10409000FCF7E6FC0546414B1B6813F0020FD2D03B
:1040A000FCF7DEFC401B0228F5D9032016E13C4B4F
:1040B0000022C3F8802EFCF7D3FC0546374B5B6F1C
:1040C00013F0020F06D0FCF7CBFC401B0228F5D9F9
:1040D000032003E1236813F0040F77D02F4B1B6CF0
:1040E00013F0805F33D1002301932C4B1A6C42F004
:1040F00080521A641B6C03F080530193019B0125CD
:10410000284B1B6813F4807F23D0A368012B34D085
:10411000052B38D0214B1A6F22F001021A671A6F53
:1041200022F004021A67A368002B3DD0FCF798FC2C
:1041300006461A4B1B6F13F0020F46D1FCF790FC9A
:10414000801B41F288339842F3D90320C6E0002552
:10415000D6E7144A136843F480731360FCF780FCBD
:104160000646104B1B6813F4807FCED1FCF778FC19
:10417000801B0228F5D90320B0E0084A136F43F0F2
:1041800001031367CFE7054B1A6F42F004021A6769
:104190001A6F42F001021A67C5E700BF00380240FB
:1041A0000000474200700040FCF75AFC0646524BA4
:1041B0001B6F13F0020F08D0FCF752FC801B41F27A
:1041C00088339842F3D9032088E0EDB9A369002B26
:1041D00000F08380484A926802F00C02082A51D00D
:1041E000022B17D0454B00221A66FCF739FC044617
:1041F000414B1B6813F0007F42D0FCF731FC001BE1
:104200000228F5D9032069E03B4A136C23F0805360
:104210001364DBE7394B00221A66FCF721FC0546E4
:10422000354B1B6813F0007F06D0FCF719FC401BD0
:104230000228F5D9032051E0E369226A1343626A38
:1042400043EA8213A26A5208013A43EA0243E26A4D
:1042500043EA0263284A5360284B01221A66FCF79E
:10426000FFFB0446244B1B6813F0007F06D1FCF7CC
:10427000F7FB001B0228F5D903202FE000202DE0DA
:1042800000202BE0012B2BD01B4B5B6803F480013B
:10429000E269914226D103F03F02216A8A4223D18A
:1042A000616A47F6C0721A40B2EB811F1ED103F457
:1042B0004031A26A5208013AB1EB024F18D103F023
:1042C0007063E26AB3EB026F14D1002006E00120B4
:1042D0007047012002E0012000E0002002B070BD24
:1042E0000120FBE70120F9E70120F7E70120F5E7CE
:1042F0000120F3E70120F1E70038024000004742C7
:1043000008B5264B9B6803F00C03042B41D0082B07
:1043100041D1224B5A6802F03F025B6813F4800FD0
:1043200012D01E4B5968C1F388111D480023A1FB10
:104330000001FCF771F9194B5B68C3F301430133CA
:104340005B00B0FBF3F008BD144B5868C0F3881055
:104350004FEA401CBCEB000C6EEB0E0E4FEA8E13C6
:1043600043EA9C634FEA8C11B1EB0C0163EB0E0343
:10437000DB0043EA5173C90011EB000C43F1000369
:10438000990200234FEA8C2041EA9C51FCF744F942
:10439000D1E70348D7E70348D5E700BF003802401C
:1043A000001BB7000024F400002800F09B8070B5CB
:1043B0000D4604464F4B1B6803F007038B4208D29F
:1043C000CBB24C4A1370136803F007038B4240F0E2
:1043D0008B80236813F0020F17D013F0040F04D062
:1043E000454A936843F4E0539360236813F0080F41
:1043F00004D0414A936843F4604393603E4A936813
:1044000023F0F003A1680B439360236813F0010FBE
:1044100032D06368012B21D09A1E012A25D9364A51
:10442000126812F0020F61D033498A6822F0030249
:1044300013438B60FCF714FB06462F4B9B6803F07D
:104440000C036268B3EB820F16D0FCF709FB801BEC
:1044500041F288339842F0D9032042E0264A12689C
:1044600012F4003FE0D101203BE0234A126812F031
:10447000007FD9D1012034E01E4B1B6803F00703F5
:10448000AB4207D9EAB21B4B1A701B6803F0070353
:10449000AB422DD1236813F0040F06D0164A93685F
:1044A00023F4E053E1680B439360236813F0080F93
:1044B00007D0114A936823F46043216943EAC1039A
:1044C0009360FFF71DFF0C4B9B68C3F303130B4A6C
:1044D000D35CD8400A4B18600A4B186807F078FC88
:1044E000002070BD012070470120FAE70120F8E7A5
:1044F0000120F6E7003C0240003802405C850108DC
:10450000E400002054000020014B1868704700BFF1
:10451000E400002008B5FFF7F7FF044B9B68C3F3E6
:104520008223034AD35CD84008BD00BF0038024054
:104530005485010808B5FFF7E7FF044B9B68C3F3F8
:104540004233034AD35CD84008BD00BF0038024064
:10455000548501080F2303600B4B9A6802F0030295
:1045600042609A6802F0F00282609A6802F4E052B7
:10457000C2609B68DB0803F4E0530361034B1B68D4
:1045800003F007030B60704700380240003C024014
:1045900030B583B00446036813F0050F06D12368D5
:1045A00013F0020F2ED1002003B030BD4A4B002281
:1045B0009A66FCF755FA0546484B1B6813F0006FE6
:1045C00006D0FCF74DFA431B022BF5D90320EBE78D
:1045D0006268A3681B0743EA8213404AC2F884302A
:1045E0003D4B01229A66FCF73BFA05463B4B1B68A4
:1045F00013F0006FD3D1FCF733FA431B022BF5D92C
:104600000320D1E700230193344B1A6C42F080520F
:104610001A641B6C03F080530193019B304A1368AA
:1046200043F480731360FCF71BFA05462C4B1B68A0
:1046300013F4807F06D1FCF713FA431B022BF5D944
:104640000320B1E7254B1B6F13F4407314D0E268CD
:1046500002F440729A420FD0204B1A6F22F440723B
:104660001D490120C1F8400E0020C1F8400E1A6714
:104670001B6F13F0010F13D1E36803F44072B2F51E
:10468000407F1ED0154A936823F4F81393601349B2
:104690000B6FE268C2F30B0213430B67002083E742
:1046A000FCF7DEF905460D4B1B6F13F0020FE3D14B
:1046B000FCF7D6F9401B41F288339842F3D9032026
:1046C00072E706498A6822F4F81223F0704323F453
:1046D000407313438B60DAE7000047420038024022
:1046E0000070004098B110B5044643795BB10223D5
:1046F00063712268136843F004031360012363713C
:104700000020A06010BD037107F082F9EFE70120DF
:10471000704738B504460268D36823F0A003D3601D
:10472000FCF79EF905462368DB6813F0200F07D1DC
:10473000FCF796F9401BB0F57A7FF4D9032000E02E
:10474000002038BD70B50368DA6812F0400F02D05F
:104750000025284670BD0446DA6842F08002DA601F
:10476000FCF77EF9064600252368DB6813F0400F4E
:10477000EFD1002DEDD1FCF773F9831BB3F57A7FF0
:10478000F2D9042363770125EEE70268D36823F0AA
:104790008003D36003689B6813F0200F01D00020D2
:1047A000704710B50446FFF7B4FF10B104236377D8
:1047B000012010BD002842D010B50446437F7BB1D4
:1047C000022363772368CA225A62236853225A62FB
:1047D0002046FFF7B7FF38B12368FF225A6210BDA9
:1047E000037707F047F9EBE72268936823F4E003C7
:1047F00023F04003936021688A686368206903435B
:104800006069034313438B602368E2681A6122687E
:104810001369A16843EA014313612046FFF7B5FF1E
:104820000028D9D12268136C23F4802313642268F2
:10483000136CA1690B43136401236377CCE7012058
:10484000704700002DE9F04782B0054688461746BC
:104850001E46FCF705F90A9B1B1A03EB0609FCF739
:10486000FFF88246284B1B68C3F3CB3309FB03F3E5
:1048700001932B689C6838EA04040CBF01230023D1
:10488000BB423DD0B6F1FF3FF3D0FCF7E9F8A0EB17
:104890000A00484507D2019A02B14A46019B013BF2
:1048A00001939146E5E72A68536823F0E0035360DB
:1048B0006B68B3F5827F0BD0AB6AB3F5005F14D0A1
:1048C000012385F85130002385F85030032018E08B
:1048D000AB68B3F5004F02D0B3F5806FECD12A6816
:1048E000136823F040031360E6E72A68136823F493
:1048F000005313602A68136843F400531360DFE722
:10490000002002B0BDE8F087E400002010B584B0BC
:104910000446164B1868164BA3FB0030400D4FF4AD
:104920007A7303FB00F003906368B3F5827F0BD0CA
:10493000039BBBB1039B013B039323689B6813F06C
:10494000800FF5D100200EE000920B46002280215E
:104950002046FFF777FF30B1636D43F020036365B6
:10496000032000E0002004B010BD00BFE4000020E0
:10497000819F5E1610B582B004460B464168B1F5C2
:10498000827F14D06168B1F5827F2AD1A168B1F528
:10499000806F19D00092002280212046FFF752FF3D
:1049A00030B3636D43F020036365032020E081682A
:1049B000B1F5004F02D0B1F5806FE3D120680168F6
:1049C00021F040010160DDE7009200220121204634
:1049D000FFF738FF60B1636D43F020036365032088
:1049E00006E00092002201212046FFF72BFF08B9C4
:1049F00002B010BD636D43F0200363650320F7E749
:104A000000285AD010B50446436A33B94368B3F559
:104A1000827F05D00023C36102E00023036143616C
:104A20000023A36294F85130002B40D0022384F875
:104A300051302268136823F040031360636803F465
:104A40008273A26802F404421343E26802F4006233
:104A50001343226902F002021343626902F0010269
:104A60001343A26902F400721343E26902F03802B0
:104A70001343226A02F080021343A26A02F4005236
:104A8000216813430B60638B03F00403626A02F036
:104A90001002216813434B602268D36923F400633A
:104AA000D36100206065012384F8513010BD84F883
:104AB0005030204607F04AF8B8E7012070472DE94A
:104AC000F04383B01D4690F85030012B00F0D180A8
:104AD000044689469046012380F85030FBF7C0FF1A
:104AE000064694F85130DFB2012B40F0AF80B9F1A7
:104AF000000F00F0AC80B8F1000F00F0A880032395
:104B000084F8513000236365C4F83090A4F83480F1
:104B1000A4F83680A363A387E38763642364A36850
:104B2000B3F5004F1ED023681A6812F0400F03D16E
:104B30001A6842F040021A60E368B3F5006F1CD0B7
:104B4000636813B1B8F1010F52D1226B2368127858
:104B50001A73236B01332363E38E9BB2013B9BB239
:104B6000E38645E02268136823F04003136022685F
:104B7000136843F480431360D5E7636813B1B8F159
:104B8000010F16D1226B23681288DA60236B02337F
:104B90002363E38E9BB2013B9BB2E38609E0FBF704
:104BA0005FFF801BA84202D3B5F1FF3F59D1002D12
:104BB00059D0E38E9BB2002B33D023689A6812F051
:104BC000020FECD0226B1288DA60236B023323636E
:104BD000E38E9BB2013B9BB2E386EAE7FBF740FF23
:104BE000801BA84202D3B5F1FF3F3ED1002D3ED03D
:104BF000E38E9BB2ABB123689A6812F0020FEDD03E
:104C0000226B12781A73236B01332363B4F836C016
:104C10001FFA8CFC0CF1FF3C1FFA8CFCA4F836C088
:104C2000E6E7324629462046FFF770FE08B120230A
:104C30006365A36833B901932368DA6801929B68BE
:104C40000193019B636D13B9002700E00227012344
:104C500084F85130002384F85030384603B0BDE862
:104C6000F0830327F3E70327F1E70327EFE70327A1
:104C7000EDE70227F1E72DE9F04383B004460A9DF2
:104C800090F85000012800F014810F469046994694
:104C9000012384F85030FBF7E3FE064694F85100F8
:104CA000C2B2636801280AD0B3F5827F40F0E78082
:104CB000A368002B40F0ED80042A40F0EC80002F28
:104CC00000F0EB80B8F1000F00F0E980B9F1000FBF
:104CD00000F0E78094F85130042B02D0052384F8CB
:104CE000513000236365C4F83880A4F83E90A4F8DE
:104CF0003C902763A4F83690A4F83490236463644E
:104D000023681A6812F0400F03D11A6842F040027B
:104D10001A60E368B3F5006F12D0636813B1B9F19C
:104D2000010F0BD1226B236812781A73236B0133A6
:104D30002363E38E9BB2013B9BB2E38601276CE0C9
:104D4000636813B1B9F1010F0BD1226B236812888C
:104D5000DA60236B02332363E38E9BB2013B9BB289
:104D6000E38601271CE023689A6812F0010F0ED039
:104D7000E28F92B25AB1DA68A36B1A80A36B023346
:104D8000A363E38F9BB2013B9BB2E3870127FBF751
:104D900067FE801BA84203D3B5F1FF3F40F083803C
:104DA000E38E9BB21BB9E38F9BB2002B53D02368D9
:104DB0009A6812F0020FD6D0E28E92B2002AD2D0B8
:104DC000002FD0D0226B1288DA60236B023323636A
:104DD000E38E9BB2013B9BB2E3860027C3E72368C7
:104DE0009A6812F0010F0ED0E28F92B25AB1DA68CF
:104DF000A36B1A70A36B0133A363E38F9BB2013BD8
:104E00009BB2E3870127FBF72BFE831BAB4202D348
:104E1000B5F1FF3F49D1002D49D0E38E9BB213B9C4
:104E2000E38F9BB2BBB123689A6812F0020FD6D011
:104E3000E28E92B2002AD2D0002FD0D0226B12780C
:104E40001A73236B01332363E38E9BB2013B9BB246
:104E5000E3860027C3E7324629462046FFF756FD82
:104E600048B9A36863B901932368DA6801929B6823
:104E70000193019B04E020236365012000E00220F0
:104E8000012384F85130002384F8503003B0BDE88A
:104E9000F0830220F4E70220F2E70120F0E701208E
:104EA000EEE70120ECE70320EAE70320E8E7032030
:104EB000E6E70220EAE70000034690F850000128E8
:104EC00047D0012083F85000002937D0002A37D07E
:104ED00093F85100012838D1032083F851000020B5
:104EE000586519639A86DA8698639887D887186414
:104EF000DA68AAB1184A5A649A68B2F5004F12D01B
:104F000019684A6842F0A0024A601A68116811F0F4
:104F1000400F1CD1116841F040011160002010E0E9
:104F20000E4A5A64E8E719680A6822F040020A60EB
:104F300019680A6842F480420A60E1E7012000E053
:104F40000120002283F8502070470220F9E700205A
:104F5000F7E70220704700BF59530008315300089B
:104F6000844690F85000012864D010B501208CF8D8
:104F700050009CF851005FFA80FEDCF804400128E4
:104F800009D0B4F5827F44D1DCF80800002845D16F
:104F9000BEF1040F44D1002944D0002A44D0002B94
:104FA00044D09CF85100042802D005208CF8510010
:104FB0000020CCF85400CCF83010ACF83430ACF809
:104FC0003630CCF83820ACF83C30ACF83E30DCF869
:104FD0000C30BBB1184BCCF84030184BCCF84430F7
:104FE000DCF80020536843F0E0035360DCF8003045
:104FF0001A6812F0400F1BD11A6842F040021A6082
:10500000002007E00E4BCCF840300E4BCCF844307B
:10501000E6E7022000238CF8503010BD0220F9E7AB
:105020000220F7E70120F5E70120F3E70120F1E78F
:105030000020EFE702207047D55400089D54000877
:10504000655400082D54000838B590F85030012BF5
:1050500061D00446012380F8503090F85130DDB221
:10506000012B52D1002951D0002A4FD0032380F8C0
:1050700051300023436501638286C28683634364A3
:1050800003648387C3878368B3F5004F2AD0A36C7A
:10509000224A1A64A36C224ADA63A36C214ADA64B6
:1050A000A36C00221A652268E38E9BB20C32216B3E
:1050B000A06CFCF751FC0146F8B923681A6812F09D
:1050C000400F03D11A6842F040021A602268536808
:1050D00043F0200353602268536843F00203536097
:1050E0000D4613E00268136823F040031360026862
:1050F000136843F480431360C9E7636D43F0100302
:105100006365012384F8513000E00225002384F810
:105110005030284638BD0225FBE700BF7D5200080D
:105120002F5500080D55000838B5044690F850007A
:10513000012800F09480012084F8500094F8510078
:105140005FFA80FC6568012808D0B5F5827F77D1C9
:10515000A068002879D1BCF1040F78D1002978D05B
:10516000002A78D0002B78D094F85100042802D07F
:10517000052084F85100002060652163A386E38642
:10518000A263A387E3872064606494F85130042B02
:105190001CD0E36C334A1A64E36C334ADA63E36C81
:1051A000324ADA64E36C00221A652168E38F9BB20D
:1051B000A26B0C31E06CFCF7CFFB70B1636D43F078
:1051C00010036365012084F851003AE0E36C284A3B
:1051D0001A64E36C274ADA63E1E72268536843F014
:1051E00001035360A26C00231364A26CD363A26C0E
:1051F000D364A26C13652268E38E9BB20C32216BE0
:10520000A06CFCF7A9FB98B923681A6812F0400F4C
:1052100003D11A6842F040021A602268536843F0D2
:10522000200353602268536843F00203536008E090
:10523000636D43F010036365012084F8510000E0C2
:105240000220002384F8503038BD0220F9E7022004
:10525000F7E70120F5E70120F3E70120F1E702205D
:10526000F2E700BF955200080D5600080D550008E2
:10527000895200089F5500087047704708B5806B39
:10528000FFF7FBFF08BD704708B5806BFFF7FBFF1A
:1052900008BD704708B5806BFFF7FBFF08BD70477E
:1052A00010B582B00446204B1B68204AA2FB0323A2
:1052B0005B0A642202FB03F30193FBF7D1FB024676
:1052C000019B43B1019B013B019323689B6813F051
:1052D000020FF5D003E0636D43F02003636521689E
:1052E0004B6823F0A0034B6064212046FFF70EFBC0
:1052F00018B1636D43F020036365A36833B900936D
:105300002368DA6800929B680093009B012384F86D
:105310005130636D23B12046FFF7C1FF02B010BDCD
:105320002046FFF7A9FFF9E7E4000020F119760510
:1053300008B5026B036812781A73036B01330363B9
:10534000C38E9BB2013B9BB2C386C38E9BB203B19B
:1053500008BDFFF7A5FFFBE708B5026B03681288DD
:10536000DA60036B02330363C38E9BB2013B9BB2D3
:10537000C386C38E9BB203B108BDFFF791FFFBE765
:1053800010B582B00446274B1B68274AA2FB0323B3
:105390005B0A642202FB03F30193FBF761FB024605
:1053A00021684B6823F020034B60019B43B1019BB4
:1053B000013B019323689B6813F0020FF5D003E0D3
:1053C000636D43F02003636564212046FFF79EFA76
:1053D00018B1636D43F020036365A36833B900938C
:1053E0002368DA6800929B680093009B636D93B911
:1053F00094F85130042B07D0012384F85130204613
:105400000CF06EFB02B010BD012384F85130204631
:105410000CF03EFBF6E7012384F851302046FFF7FD
:105420003EFFEFE7E4000020F119760508B5026BB6
:10543000036812781A73036B01330363C38E9BB244
:10544000013B9BB2C386C38E9BB23BB902685368D3
:1054500023F080035360C38F9BB203B108BDFFF7F5
:105460008FFFFBE708B50268836B127B1A70836BB2
:1054700001338363C38F9BB2013B9BB2C387C38F4E
:105480009BB23BB90268536823F060035360C38E3C
:105490009BB203B108BDFFF773FFFBE708B5026BD2
:1054A00003681288DA60036B02330363C38E9BB216
:1054B000013B9BB2C386C38E9BB23BB90268536863
:1054C00023F080035360C38F9BB203B108BDFFF785
:1054D00057FFFBE708B50368DA68836B1A80836BB4
:1054E00002338363C38F9BB2013B9BB2C387C38FDD
:1054F0009BB23BB90268536823F040035360C38EEC
:105500009BB203B108BDFFF73BFFFBE708B5806B1B
:105510000268536823F003035360436D43F01003A4
:105520004365012380F85130FFF7B9FE08BD30B55F
:1055300083B00546846BFBF793FA2B681B6813F462
:10554000807F23D1024621684B6823F020034B6003
:1055500021684B6823F002034B6064212046FFF76B
:10556000D5F918B1636D43F020036365A36833B9BF
:1055700001932368DA6801929B680193019B0023E1
:10558000E386012384F85130636D23B92046FFF789
:1055900073FE03B030BD2046FFF781FEF9E738B552
:1055A0000546846BFBF75CFA2B681B6813F4807F5D
:1055B0001ED1024621684B6823F020034B60A3688C
:1055C0001BB96368B3F5827F16D021684B6823F05E
:1055D00001034B6064212046FFF7CCF908B120237A
:1055E00063650023E387012384F85130636D4BB971
:1055F00020460CF04DFA38BD21684B6823F00303B8
:105600004B60E7E72046FFF74AFEF4E738B505466A
:10561000846BFBF725FA2B681B6813F4807F1BD182
:10562000024621684B6823F020034B60642120462A
:10563000FFF76CF918B1636D43F0200363652268CE
:10564000536823F0030353600023E386E3870123B9
:1056500084F85130636D1BB920460CF041FA38BD17
:105660002046FFF71CFEFAE730B585B00446026815
:1056700051689368C3F3801013F0400F05D113F005
:10568000010F02D011F0400F68D113F0020F02D0C9
:1056900011F0800F66D1C3F3401513F0200F03D132
:1056A00010B913F4807F60D011F0200F5DD070B17D
:1056B00094F8510003285AD0606D40F004006065F2
:1056C00000200090D068009090680090009865B12C
:1056D000606D40F0010060650020029090680290CB
:1056E000106820F040001060029A13F4807F09D007
:1056F000636D43F0080363650023039323689B688D
:105700000393039B636D002B2FD02268536823F013
:10571000E0035360012384F8513011F0030F2ED0C1
:105720002268536823F003035360E36C4BB1164ABD
:105730001A65E06CFCF78DF918B1636D43F0400316
:105740006365A36C8BB1104A1A65A06CFCF781F9F4
:1057500058B1636D43F04003636506E0236C204657
:10576000984702E0636C2046984705B030BD00239F
:105770000193D368019393680193019BF5E7204659
:10578000FFF78DFDF1E700BF8D57000808B5806B6E
:105790000023C387C386FFF782FD08BD30B4036AC8
:1057A00023F001030362036A4268846924F0730CE6
:1057B0000C6844EA0C0423F0020C8B6843EA0C03E7
:1057C000114DA84203D005F58065A84205D123F00C
:1057D0000803CD682B4323F004030B4DA84203D0EC
:1057E00005F58065A84207D122F440724D6945EA6B
:1057F000020C8A6942EA0C02426084614A68426390
:10580000036230BC704700BF0000014030B4036A3F
:1058100023F480730362036A4268C46924F0730C42
:105820000C6844EA0C0523F400738C6843EA0423F3
:10583000114CA04203D004F58064A04206D123F4A9
:105840000063CC6843EA042323F480630A4CA0423B
:1058500003D004F58064A04207D122F440524C6981
:1058600042EA04128C6942EA04124260C5614A6845
:10587000C263036230BC70470000014030B4036A69
:1058800023F480530362036A4468C26922F4E64247
:105890000D6842EA052223F400538D6843EA05337C
:1058A000094DA84203D005F58065A84204D124F42F
:1058B00080444D6944EA85144460C2614A680264C8
:1058C000036230BC704700BF0000014010B4036A9F
:1058D000046A24F001040462846924F0F00C4CEAA8
:1058E000021223F00A030B43826103625DF8044B4A
:1058F000704710B4036A23F0100303628469036ADB
:1059000024F4704C4CEA023223F0A00343EA011362
:10591000826103625DF8044B7047836823F0700373
:105920000B4343F0070383607047000090F83D305D
:10593000012B37D1022380F83D300268D36843F051
:105940000103D3600368194A934220D0B3F1804F1A
:105950001DD0A2F57C42934219D002F58062934299
:1059600015D002F58062934211D002F5784293423D
:105970000DD002F57052934209D0A2F594329342B1
:1059800005D01A6842F001021A60002070479A6838
:1059900002F00702062A07D01A6842F001021A60D4
:1059A0000020704701207047002070470000014030
:1059B0007047704770477047704710B504460368DA
:1059C0001A6912F0020F11D0DA6812F0020F0DD02E
:1059D0006FF002021A610123037703689B6913F0D9
:1059E000030F70D0FFF7E7FF0023237723681A69BE
:1059F00012F0040F12D0DA6812F0040F0ED06FF01C
:105A000004021A610223237723689B6913F4407F01
:105A10005FD02046FFF7CFFF0023237723681A6962
:105A200012F0080F12D0DA6812F0080F0ED06FF0E3
:105A300008021A61042323772368DB6913F0030F3C
:105A40004ED02046FFF7B7FF0023237723681A695B
:105A500012F0100F12D0DA6812F0100F0ED06FF0A3
:105A600010021A61082323772368DB6913F4407F4F
:105A70003DD02046FFF79FFF0023237723681A6954
:105A800012F0010F03D0DA6812F0010F36D123684B
:105A90001A6912F0800F03D0DA6812F0800F34D147
:105AA00023681A6912F0400F03D0DA6812F0400F31
:105AB00032D123681A6912F0200F03D0DA6812F08D
:105AC000200F30D110BDFFF775FF20460BF0A0FE70
:105AD0008AE72046FFF76EFF20460BF099FE9BE712
